{
  "contractName": "Todo",
  "abi": [
    {
      "anonymous": false,
      "inputs": [
        {
          "indexed": false,
          "name": "position",
          "type": "uint256"
        }
      ],
      "name": "LogItemAdded",
      "type": "event"
    },
    {
      "anonymous": false,
      "inputs": [
        {
          "indexed": false,
          "name": "position",
          "type": "uint256"
        }
      ],
      "name": "LogItemUpdated",
      "type": "event"
    },
    {
      "anonymous": false,
      "inputs": [
        {
          "indexed": false,
          "name": "position",
          "type": "uint256"
        }
      ],
      "name": "LogItemRemoved",
      "type": "event"
    },
    {
      "anonymous": false,
      "inputs": [],
      "name": "LogTodoListReset",
      "type": "event"
    },
    {
      "constant": false,
      "inputs": [
        {
          "name": "_position",
          "type": "uint256"
        },
        {
          "name": "_value",
          "type": "string"
        }
      ],
      "name": "addOrUpdate",
      "outputs": [],
      "payable": false,
      "stateMutability": "nonpayable",
      "type": "function"
    },
    {
      "constant": false,
      "inputs": [
        {
          "name": "_position",
          "type": "uint256"
        }
      ],
      "name": "remove",
      "outputs": [],
      "payable": false,
      "stateMutability": "nonpayable",
      "type": "function"
    },
    {
      "constant": true,
      "inputs": [],
      "name": "getSize",
      "outputs": [
        {
          "name": "_size",
          "type": "uint256"
        }
      ],
      "payable": false,
      "stateMutability": "view",
      "type": "function"
    },
    {
      "constant": true,
      "inputs": [
        {
          "name": "_position",
          "type": "uint256"
        }
      ],
      "name": "getItem",
      "outputs": [
        {
          "name": "_task",
          "type": "string"
        }
      ],
      "payable": false,
      "stateMutability": "view",
      "type": "function"
    },
    {
      "constant": false,
      "inputs": [],
      "name": "deleteTodo",
      "outputs": [],
      "payable": false,
      "stateMutability": "nonpayable",
      "type": "function"
    }
  ],
  "bytecode": "0x6060604052341561000f57600080fd5b6107208061001e6000396000f30060606040526004361061006d576000357c0100000000000000000000000000000000000000000000000000000000900463ffffffff1680633129e773146100725780634cc822151461010e5780635f2fa20114610131578063de8fa43114610197578063f11fe10a146101c0575b600080fd5b341561007d57600080fd5b61009360048080359060200190919050506101d5565b6040518080602001828103825283818151815260200191508051906020019080838360005b838110156100d35780820151818401526020810190506100b8565b50505050905090810190601f1680156101005780820380516001836020036101000a031916815260200191505b509250505060405180910390f35b341561011957600080fd5b61012f60048080359060200190919050506102b1565b005b341561013c57600080fd5b610195600480803590602001909190803590602001908201803590602001908080601f016020809104026020016040519081016040528093929190818152602001838380828437820191505050505050919050506103b5565b005b34156101a257600080fd5b6101aa6104f7565b6040518082815260200191505060405180910390f35b34156101cb57600080fd5b6101d3610504565b005b6101dd61059b565b600060018084038154811015156101f057fe5b90600052602060002090015490506000808281526020019081526020016000208054600181600116156101000203166002900480601f0160208091040260200160405190810160405280929190818152602001828054600181600116156101000203166002900480156102a45780601f10610279576101008083540402835291602001916102a4565b820191906000526020600020905b81548152906001019060200180831161028757829003601f168201915b5050505050915050919050565b60008060018054905083111515156102c857600080fd5b60018084038154811015156102d957fe5b90600052602060002090015491507f2898e2b95651c99aeb328d049d8f35158543b4bc8d190a3ac0a908b8548e50ea836040518082815260200191505060405180910390a1600080838152602001908152602001600020600061033c91906105af565b6001830390505b600180805490500381101561039a57600180820181548110151561036357fe5b90600052602060002090015460018281548110151561037e57fe5b9060005260206000209001819055508080600101915050610343565b60018054809190600190036103af91906105f7565b50505050565b60008082511115156103c657600080fd5b600180549050831115156104565760018084038154811015156103e557fe5b90600052602060002090015490507f26a8413bae1256e073e215f77038cc71700e5c5a9e43f662b68fb4544342cb4a836040518082815260200191505060405180910390a1816000808381526020019081526020016000209080519060200190610450929190610623565b506104f2565b600260008154600101919050819055507f7c6ddad0c69c862b2d126f21fbf47956d5028dbd0c436bc3c5b2c6dc0477dcad836040518082815260200191505060405180910390a1600180548060010182816104b191906106a3565b916000526020600020900160006002549091909150555081600080600254815260200190815260200160002090805190602001906104f0929190610623565b505b505050565b6000600180549050905090565b60008090505b60018054905081101561055c5760008060018381548110151561052957fe5b9060005260206000209001548152602001908152602001600020600061054f91906105af565b808060010191505061050a565b7fdfcb3947f7a8078597b0262beae9f812bd082ba24c096ed9b11b38931caf8a6760405160405180910390a1600060018161059791906105f7565b5050565b602060405190810160405280600081525090565b50805460018160011615610100020316600290046000825580601f106105d557506105f4565b601f0160209004906000526020600020908101906105f391906106cf565b5b50565b81548183558181151161061e5781836000526020600020918201910161061d91906106cf565b5b505050565b828054600181600116156101000203166002900490600052602060002090601f016020900481019282601f1061066457805160ff1916838001178555610692565b82800160010185558215610692579182015b82811115610691578251825591602001919060010190610676565b5b50905061069f91906106cf565b5090565b8154818355818115116106ca578183600052602060002091820191016106c991906106cf565b5b505050565b6106f191905b808211156106ed5760008160009055506001016106d5565b5090565b905600a165627a7a72305820e670d0d5c14ae13e87b92a8413a36aa2da3b5f39b7e55016effe3d5d591f24f70029",
  "source": "/**\n@title Todo main contract - holds all the tasks of the Todo list.\n       The keys array contains keys in the same position as the\n       list in the React app.\n@author Naveen Palaniswamy\n@copyright Naveen Palaniswamy\n*/\n\npragma solidity ^0.4.19;\n\n\ncontract Todo {\n\n    // Mapping keys to tasks\n    mapping(uint => string) private tasks;\n    uint[] private keys;\n    uint private counter;\n\n    event LogItemAdded(uint position);\n    event LogItemUpdated(uint position);\n    event LogItemRemoved(uint position);\n    event LogTodoListReset();\n\n    /**\n    @notice Add or Update task\n    @param _position Postion in the list\n    @param _value Task value to be added\n    */\n    function addOrUpdate(uint _position, string memory _value) public {\n        require(bytes(_value).length > 0);\n\n        if (_position <= keys.length) {\n            // This is an update scenario\n            uint key = keys[_position - 1];\n            LogItemUpdated(_position);\n            tasks[key] = _value;\n        } else {\n            ++counter;\n            LogItemAdded(_position);\n            keys.push(counter);\n            tasks[counter] = _value;\n        }\n    }\n\n    /**\n    @notice Remove task\n    @param _position Postion in the list\n    */\n    function remove(uint _position) public {\n        require(_position <= keys.length);\n\n        uint key = keys[_position - 1];\n        LogItemRemoved(_position);\n\n        delete tasks[key];\n        for (uint i = _position - 1; i < keys.length - 1; i++) {\n            keys[i] = keys[i + 1];\n        }\n\n        keys.length--;\n    }\n\n    /**\n    @notice List size\n    @return {\n      _size Returns size of the list\n    }\n    */\n    function getSize() public view returns (uint _size) {\n        _size = keys.length;\n    }\n\n    /**\n    @notice Get task value\n    @return {\n      _task Returns string value of the task item\n    }\n    */\n    function getItem(uint _position) public view returns (string _task) {\n        uint key = keys[_position - 1];\n        _task = tasks[key];\n    }\n\n    /**\n    @notice Delete Todo list\n    */\n    function deleteTodo() public {\n        for (uint i = 0; i < keys.length; i++) {\n            delete tasks[keys[i]];\n        }\n        LogTodoListReset();\n        keys.length = 0;\n    }\n\n}\n",
  "sourcePath": "/Users/palanisn/workspace/solidity/eth-todo-dapp/contracts/Todo.sol",
  "compiler": {
    "name": "solc",
    "version": "0.4.19+commit.c4cbbb05.Emscripten.clang"
  },
  "schemaVersion": "1.0.1",
  "updatedAt": "2018-03-01T09:51:08.078Z"
}